{
  "_format": "hh-sol-artifact-1",
  "contractName": "Collateral",
  "sourceName": "contracts/Collateral.sol",
  "abi": [
    {
      "inputs": [],
      "stateMutability": "nonpayable",
      "type": "constructor"
    },
    {
      "anonymous": false,
      "inputs": [
        {
          "indexed": true,
          "internalType": "address",
          "name": "owner",
          "type": "address"
        },
        {
          "indexed": true,
          "internalType": "address",
          "name": "approved",
          "type": "address"
        },
        {
          "indexed": true,
          "internalType": "uint256",
          "name": "tokenId",
          "type": "uint256"
        }
      ],
      "name": "Approval",
      "type": "event"
    },
    {
      "anonymous": false,
      "inputs": [
        {
          "indexed": true,
          "internalType": "address",
          "name": "owner",
          "type": "address"
        },
        {
          "indexed": true,
          "internalType": "address",
          "name": "operator",
          "type": "address"
        },
        {
          "indexed": false,
          "internalType": "bool",
          "name": "approved",
          "type": "bool"
        }
      ],
      "name": "ApprovalForAll",
      "type": "event"
    },
    {
      "anonymous": false,
      "inputs": [
        {
          "indexed": true,
          "internalType": "address",
          "name": "from",
          "type": "address"
        },
        {
          "indexed": true,
          "internalType": "address",
          "name": "to",
          "type": "address"
        },
        {
          "indexed": true,
          "internalType": "uint256",
          "name": "tokenId",
          "type": "uint256"
        }
      ],
      "name": "Transfer",
      "type": "event"
    },
    {
      "inputs": [
        {
          "internalType": "address",
          "name": "to",
          "type": "address"
        },
        {
          "internalType": "uint256",
          "name": "tokenId",
          "type": "uint256"
        }
      ],
      "name": "approve",
      "outputs": [],
      "stateMutability": "nonpayable",
      "type": "function"
    },
    {
      "inputs": [
        {
          "internalType": "address",
          "name": "owner",
          "type": "address"
        }
      ],
      "name": "balanceOf",
      "outputs": [
        {
          "internalType": "uint256",
          "name": "",
          "type": "uint256"
        }
      ],
      "stateMutability": "view",
      "type": "function"
    },
    {
      "inputs": [
        {
          "internalType": "uint256",
          "name": "tokenId",
          "type": "uint256"
        }
      ],
      "name": "getApproved",
      "outputs": [
        {
          "internalType": "address",
          "name": "",
          "type": "address"
        }
      ],
      "stateMutability": "view",
      "type": "function"
    },
    {
      "inputs": [
        {
          "internalType": "address",
          "name": "owner",
          "type": "address"
        },
        {
          "internalType": "address",
          "name": "operator",
          "type": "address"
        }
      ],
      "name": "isApprovedForAll",
      "outputs": [
        {
          "internalType": "bool",
          "name": "",
          "type": "bool"
        }
      ],
      "stateMutability": "view",
      "type": "function"
    },
    {
      "inputs": [
        {
          "internalType": "string",
          "name": "_tokenURI",
          "type": "string"
        }
      ],
      "name": "mint",
      "outputs": [
        {
          "internalType": "uint256",
          "name": "",
          "type": "uint256"
        }
      ],
      "stateMutability": "nonpayable",
      "type": "function"
    },
    {
      "inputs": [],
      "name": "name",
      "outputs": [
        {
          "internalType": "string",
          "name": "",
          "type": "string"
        }
      ],
      "stateMutability": "view",
      "type": "function"
    },
    {
      "inputs": [
        {
          "internalType": "uint256",
          "name": "tokenId",
          "type": "uint256"
        }
      ],
      "name": "ownerOf",
      "outputs": [
        {
          "internalType": "address",
          "name": "",
          "type": "address"
        }
      ],
      "stateMutability": "view",
      "type": "function"
    },
    {
      "inputs": [
        {
          "internalType": "address",
          "name": "from",
          "type": "address"
        },
        {
          "internalType": "address",
          "name": "to",
          "type": "address"
        },
        {
          "internalType": "uint256",
          "name": "tokenId",
          "type": "uint256"
        }
      ],
      "name": "safeTransferFrom",
      "outputs": [],
      "stateMutability": "nonpayable",
      "type": "function"
    },
    {
      "inputs": [
        {
          "internalType": "address",
          "name": "from",
          "type": "address"
        },
        {
          "internalType": "address",
          "name": "to",
          "type": "address"
        },
        {
          "internalType": "uint256",
          "name": "tokenId",
          "type": "uint256"
        },
        {
          "internalType": "bytes",
          "name": "_data",
          "type": "bytes"
        }
      ],
      "name": "safeTransferFrom",
      "outputs": [],
      "stateMutability": "nonpayable",
      "type": "function"
    },
    {
      "inputs": [
        {
          "internalType": "address",
          "name": "operator",
          "type": "address"
        },
        {
          "internalType": "bool",
          "name": "approved",
          "type": "bool"
        }
      ],
      "name": "setApprovalForAll",
      "outputs": [],
      "stateMutability": "nonpayable",
      "type": "function"
    },
    {
      "inputs": [
        {
          "internalType": "bytes4",
          "name": "interfaceId",
          "type": "bytes4"
        }
      ],
      "name": "supportsInterface",
      "outputs": [
        {
          "internalType": "bool",
          "name": "",
          "type": "bool"
        }
      ],
      "stateMutability": "view",
      "type": "function"
    },
    {
      "inputs": [],
      "name": "symbol",
      "outputs": [
        {
          "internalType": "string",
          "name": "",
          "type": "string"
        }
      ],
      "stateMutability": "view",
      "type": "function"
    },
    {
      "inputs": [],
      "name": "tokenCount",
      "outputs": [
        {
          "internalType": "uint256",
          "name": "",
          "type": "uint256"
        }
      ],
      "stateMutability": "view",
      "type": "function"
    },
    {
      "inputs": [
        {
          "internalType": "uint256",
          "name": "tokenId",
          "type": "uint256"
        }
      ],
      "name": "tokenURI",
      "outputs": [
        {
          "internalType": "string",
          "name": "",
          "type": "string"
        }
      ],
      "stateMutability": "view",
      "type": "function"
    },
    {
      "inputs": [
        {
          "internalType": "address",
          "name": "from",
          "type": "address"
        },
        {
          "internalType": "address",
          "name": "to",
          "type": "address"
        },
        {
          "internalType": "uint256",
          "name": "tokenId",
          "type": "uint256"
        }
      ],
      "name": "transferFrom",
      "outputs": [],
      "stateMutability": "nonpayable",
      "type": "function"
    }
  ],
  "bytecode": "0x60806040523480156200001157600080fd5b506040518060400160405280600a81526020017f436f6c6c61746572616c000000000000000000000000000000000000000000008152506040518060400160405280600381526020017f434c540000000000000000000000000000000000000000000000000000000000815250816000908051906020019062000096929190620000b8565b508060019080519060200190620000af929190620000b8565b505050620001cd565b828054620000c69062000197565b90600052602060002090601f016020900481019282620000ea576000855562000136565b82601f106200010557805160ff191683800117855562000136565b8280016001018555821562000136579182015b828111156200013557825182559160200191906001019062000118565b5b50905062000145919062000149565b5090565b5b80821115620001645760008160009055506001016200014a565b5090565b7f4e487b7100000000000000000000000000000000000000000000000000000000600052602260045260246000fd5b60006002820490506001821680620001b057607f821691505b60208210811415620001c757620001c662000168565b5b50919050565b612c3180620001dd6000396000f3fe608060405234801561001057600080fd5b50600436106100f55760003560e01c806370a0823111610097578063b88d4fde11610066578063b88d4fde14610284578063c87b56dd146102a0578063d85d3d27146102d0578063e985e9c514610300576100f5565b806370a08231146101fc57806395d89b411461022c5780639f181b5e1461024a578063a22cb46514610268576100f5565b8063095ea7b3116100d3578063095ea7b31461017857806323b872dd1461019457806342842e0e146101b05780636352211e146101cc576100f5565b806301ffc9a7146100fa57806306fdde031461012a578063081812fc14610148575b600080fd5b610114600480360381019061010f91906119a6565b610330565b60405161012191906119ee565b60405180910390f35b610132610412565b60405161013f9190611aa2565b60405180910390f35b610162600480360381019061015d9190611afa565b6104a4565b60405161016f9190611b68565b60405180910390f35b610192600480360381019061018d9190611baf565b610529565b005b6101ae60048036038101906101a99190611bef565b610641565b005b6101ca60048036038101906101c59190611bef565b6106a1565b005b6101e660048036038101906101e19190611afa565b6106c1565b6040516101f39190611b68565b60405180910390f35b61021660048036038101906102119190611c42565b610773565b6040516102239190611c7e565b60405180910390f35b61023461082b565b6040516102419190611aa2565b60405180910390f35b6102526108bd565b60405161025f9190611c7e565b60405180910390f35b610282600480360381019061027d9190611cc5565b6108c3565b005b61029e60048036038101906102999190611e3a565b6108d9565b005b6102ba60048036038101906102b59190611afa565b61093b565b6040516102c79190611aa2565b60405180910390f35b6102ea60048036038101906102e59190611f5e565b610a8d565b6040516102f79190611c7e565b60405180910390f35b61031a60048036038101906103159190611fa7565b610ac3565b60405161032791906119ee565b60405180910390f35b60007f80ac58cd000000000000000000000000000000000000000000000000000000007bffffffffffffffffffffffffffffffffffffffffffffffffffffffff1916827bffffffffffffffffffffffffffffffffffffffffffffffffffffffff191614806103fb57507f5b5e139f000000000000000000000000000000000000000000000000000000007bffffffffffffffffffffffffffffffffffffffffffffffffffffffff1916827bffffffffffffffffffffffffffffffffffffffffffffffffffffffff1916145b8061040b575061040a82610b57565b5b9050919050565b60606000805461042190612016565b80601f016020809104026020016040519081016040528092919081815260200182805461044d90612016565b801561049a5780601f1061046f5761010080835404028352916020019161049a565b820191906000526020600020905b81548152906001019060200180831161047d57829003601f168201915b5050505050905090565b60006104af82610bc1565b6104ee576040517f08c379a00000000000000000000000000000000000000000000000000000000081526004016104e5906120ba565b60405180910390fd5b6004600083815260200190815260200160002060009054906101000a900473ffffffffffffffffffffffffffffffffffffffff169050919050565b6000610534826106c1565b90508073ffffffffffffffffffffffffffffffffffffffff168373ffffffffffffffffffffffffffffffffffffffff1614156105a5576040517f08c379a000000000000000000000000000000000000000000000000000000000815260040161059c9061214c565b60405180910390fd5b8073ffffffffffffffffffffffffffffffffffffffff166105c4610c2d565b73ffffffffffffffffffffffffffffffffffffffff1614806105f357506105f2816105ed610c2d565b610ac3565b5b610632576040517f08c379a0000000000000000000000000000000000000000000000000000000008152600401610629906121de565b60405180910390fd5b61063c8383610c35565b505050565b61065261064c610c2d565b82610cee565b610691576040517f08c379a000000000000000000000000000000000000000000000000000000000815260040161068890612270565b60405180910390fd5b61069c838383610dcc565b505050565b6106bc838383604051806020016040528060008152506108d9565b505050565b6000806002600084815260200190815260200160002060009054906101000a900473ffffffffffffffffffffffffffffffffffffffff169050600073ffffffffffffffffffffffffffffffffffffffff168173ffffffffffffffffffffffffffffffffffffffff16141561076a576040517f08c379a000000000000000000000000000000000000000000000000000000000815260040161076190612302565b60405180910390fd5b80915050919050565b60008073ffffffffffffffffffffffffffffffffffffffff168273ffffffffffffffffffffffffffffffffffffffff1614156107e4576040517f08c379a00000000000000000000000000000000000000000000000000000000081526004016107db90612394565b60405180910390fd5b600360008373ffffffffffffffffffffffffffffffffffffffff1673ffffffffffffffffffffffffffffffffffffffff168152602001908152602001600020549050919050565b60606001805461083a90612016565b80601f016020809104026020016040519081016040528092919081815260200182805461086690612016565b80156108b35780601f10610888576101008083540402835291602001916108b3565b820191906000526020600020905b81548152906001019060200180831161089657829003601f168201915b5050505050905090565b60075481565b6108d56108ce610c2d565b8383611033565b5050565b6108ea6108e4610c2d565b83610cee565b610929576040517f08c379a000000000000000000000000000000000000000000000000000000000815260040161092090612270565b60405180910390fd5b610935848484846111a0565b50505050565b606061094682610bc1565b610985576040517f08c379a000000000000000000000000000000000000000000000000000000000815260040161097c90612426565b60405180910390fd5b60006006600084815260200190815260200160002080546109a590612016565b80601f01602080910402602001604051908101604052809291908181526020018280546109d190612016565b8015610a1e5780601f106109f357610100808354040283529160200191610a1e565b820191906000526020600020905b815481529060010190602001808311610a0157829003601f168201915b505050505090506000610a2f6111fc565b9050600081511415610a45578192505050610a88565b600082511115610a7a578082604051602001610a62929190612482565b60405160208183030381529060405292505050610a88565b610a8384611213565b925050505b919050565b6000610aad33600760008154610aa2906124d5565b9190508190556112ba565b610ab9600754836112d8565b6007549050919050565b6000600560008473ffffffffffffffffffffffffffffffffffffffff1673ffffffffffffffffffffffffffffffffffffffff16815260200190815260200160002060008373ffffffffffffffffffffffffffffffffffffffff1673ffffffffffffffffffffffffffffffffffffffff16815260200190815260200160002060009054906101000a900460ff16905092915050565b60007f01ffc9a7000000000000000000000000000000000000000000000000000000007bffffffffffffffffffffffffffffffffffffffffffffffffffffffff1916827bffffffffffffffffffffffffffffffffffffffffffffffffffffffff1916149050919050565b60008073ffffffffffffffffffffffffffffffffffffffff166002600084815260200190815260200160002060009054906101000a900473ffffffffffffffffffffffffffffffffffffffff1673ffffffffffffffffffffffffffffffffffffffff1614159050919050565b600033905090565b816004600083815260200190815260200160002060006101000a81548173ffffffffffffffffffffffffffffffffffffffff021916908373ffffffffffffffffffffffffffffffffffffffff160217905550808273ffffffffffffffffffffffffffffffffffffffff16610ca8836106c1565b73ffffffffffffffffffffffffffffffffffffffff167f8c5be1e5ebec7d5bd14f71427d1e84f3dd0314c0f7b2291e5b200ac8c7c3b92560405160405180910390a45050565b6000610cf982610bc1565b610d38576040517f08c379a0000000000000000000000000000000000000000000000000000000008152600401610d2f90612590565b60405180910390fd5b6000610d43836106c1565b90508073ffffffffffffffffffffffffffffffffffffffff168473ffffffffffffffffffffffffffffffffffffffff161480610d855750610d848185610ac3565b5b80610dc357508373ffffffffffffffffffffffffffffffffffffffff16610dab846104a4565b73ffffffffffffffffffffffffffffffffffffffff16145b91505092915050565b8273ffffffffffffffffffffffffffffffffffffffff16610dec826106c1565b73ffffffffffffffffffffffffffffffffffffffff1614610e42576040517f08c379a0000000000000000000000000000000000000000000000000000000008152600401610e3990612622565b60405180910390fd5b600073ffffffffffffffffffffffffffffffffffffffff168273ffffffffffffffffffffffffffffffffffffffff161415610eb2576040517f08c379a0000000000000000000000000000000000000000000000000000000008152600401610ea9906126b4565b60405180910390fd5b610ebd83838361134c565b610ec8600082610c35565b6001600360008573ffffffffffffffffffffffffffffffffffffffff1673ffffffffffffffffffffffffffffffffffffffff1681526020019081526020016000206000828254610f1891906126d4565b925050819055506001600360008473ffffffffffffffffffffffffffffffffffffffff1673ffffffffffffffffffffffffffffffffffffffff1681526020019081526020016000206000828254610f6f9190612708565b92505081905550816002600083815260200190815260200160002060006101000a81548173ffffffffffffffffffffffffffffffffffffffff021916908373ffffffffffffffffffffffffffffffffffffffff160217905550808273ffffffffffffffffffffffffffffffffffffffff168473ffffffffffffffffffffffffffffffffffffffff167fddf252ad1be2c89b69c2b068fc378daa952ba7f163c4a11628f55a4df523b3ef60405160405180910390a461102e838383611351565b505050565b8173ffffffffffffffffffffffffffffffffffffffff168373ffffffffffffffffffffffffffffffffffffffff1614156110a2576040517f08c379a0000000000000000000000000000000000000000000000000000000008152600401611099906127aa565b60405180910390fd5b80600560008573ffffffffffffffffffffffffffffffffffffffff1673ffffffffffffffffffffffffffffffffffffffff16815260200190815260200160002060008473ffffffffffffffffffffffffffffffffffffffff1673ffffffffffffffffffffffffffffffffffffffff16815260200190815260200160002060006101000a81548160ff0219169083151502179055508173ffffffffffffffffffffffffffffffffffffffff168373ffffffffffffffffffffffffffffffffffffffff167f17307eab39ab6107e8899845ad3d59bd9653f200f220920489ca2b5937696c318360405161119391906119ee565b60405180910390a3505050565b6111ab848484610dcc565b6111b784848484611356565b6111f6576040517f08c379a00000000000000000000000000000000000000000000000000000000081526004016111ed9061283c565b60405180910390fd5b50505050565b606060405180602001604052806000815250905090565b606061121e82610bc1565b61125d576040517f08c379a0000000000000000000000000000000000000000000000000000000008152600401611254906128ce565b60405180910390fd5b60006112676111fc565b9050600081511161128757604051806020016040528060008152506112b2565b80611291846114de565b6040516020016112a2929190612482565b6040516020818303038152906040525b915050919050565b6112d482826040518060200160405280600081525061163f565b5050565b6112e182610bc1565b611320576040517f08c379a000000000000000000000000000000000000000000000000000000000815260040161131790612960565b60405180910390fd5b80600660008481526020019081526020016000209080519060200190611347929190611897565b505050565b505050565b505050565b60006113778473ffffffffffffffffffffffffffffffffffffffff1661169a565b156114d1578373ffffffffffffffffffffffffffffffffffffffff1663150b7a026113a0610c2d565b8786866040518563ffffffff1660e01b81526004016113c294939291906129d5565b6020604051808303816000875af19250505080156113fe57506040513d601f19601f820116820180604052508101906113fb9190612a36565b60015b611481573d806000811461142e576040519150601f19603f3d011682016040523d82523d6000602084013e611433565b606091505b50600081511415611479576040517f08c379a00000000000000000000000000000000000000000000000000000000081526004016114709061283c565b60405180910390fd5b805181602001fd5b63150b7a0260e01b7bffffffffffffffffffffffffffffffffffffffffffffffffffffffff1916817bffffffffffffffffffffffffffffffffffffffffffffffffffffffff1916149150506114d6565b600190505b949350505050565b60606000821415611526576040518060400160405280600181526020017f3000000000000000000000000000000000000000000000000000000000000000815250905061163a565b600082905060005b60008214611558578080611541906124d5565b915050600a826115519190612a92565b915061152e565b60008167ffffffffffffffff81111561157457611573611d0f565b5b6040519080825280601f01601f1916602001820160405280156115a65781602001600182028036833780820191505090505b5090505b60008514611633576001826115bf91906126d4565b9150600a856115ce9190612ac3565b60306115da9190612708565b60f81b8183815181106115f0576115ef612af4565b5b60200101907effffffffffffffffffffffffffffffffffffffffffffffffffffffffffffff1916908160001a905350600a8561162c9190612a92565b94506115aa565b8093505050505b919050565b61164983836116bd565b6116566000848484611356565b611695576040517f08c379a000000000000000000000000000000000000000000000000000000000815260040161168c9061283c565b60405180910390fd5b505050565b6000808273ffffffffffffffffffffffffffffffffffffffff163b119050919050565b600073ffffffffffffffffffffffffffffffffffffffff168273ffffffffffffffffffffffffffffffffffffffff16141561172d576040517f08c379a000000000000000000000000000000000000000000000000000000000815260040161172490612b6f565b60405180910390fd5b61173681610bc1565b15611776576040517f08c379a000000000000000000000000000000000000000000000000000000000815260040161176d90612bdb565b60405180910390fd5b6117826000838361134c565b6001600360008473ffffffffffffffffffffffffffffffffffffffff1673ffffffffffffffffffffffffffffffffffffffff16815260200190815260200160002060008282546117d29190612708565b92505081905550816002600083815260200190815260200160002060006101000a81548173ffffffffffffffffffffffffffffffffffffffff021916908373ffffffffffffffffffffffffffffffffffffffff160217905550808273ffffffffffffffffffffffffffffffffffffffff16600073ffffffffffffffffffffffffffffffffffffffff167fddf252ad1be2c89b69c2b068fc378daa952ba7f163c4a11628f55a4df523b3ef60405160405180910390a461189360008383611351565b5050565b8280546118a390612016565b90600052602060002090601f0160209004810192826118c5576000855561190c565b82601f106118de57805160ff191683800117855561190c565b8280016001018555821561190c579182015b8281111561190b5782518255916020019190600101906118f0565b5b509050611919919061191d565b5090565b5b8082111561193657600081600090555060010161191e565b5090565b6000604051905090565b600080fd5b600080fd5b60007fffffffff0000000000000000000000000000000000000000000000000000000082169050919050565b6119838161194e565b811461198e57600080fd5b50565b6000813590506119a08161197a565b92915050565b6000602082840312156119bc576119bb611944565b5b60006119ca84828501611991565b91505092915050565b60008115159050919050565b6119e8816119d3565b82525050565b6000602082019050611a0360008301846119df565b92915050565b600081519050919050565b600082825260208201905092915050565b60005b83811015611a43578082015181840152602081019050611a28565b83811115611a52576000848401525b50505050565b6000601f19601f8301169050919050565b6000611a7482611a09565b611a7e8185611a14565b9350611a8e818560208601611a25565b611a9781611a58565b840191505092915050565b60006020820190508181036000830152611abc8184611a69565b905092915050565b6000819050919050565b611ad781611ac4565b8114611ae257600080fd5b50565b600081359050611af481611ace565b92915050565b600060208284031215611b1057611b0f611944565b5b6000611b1e84828501611ae5565b91505092915050565b600073ffffffffffffffffffffffffffffffffffffffff82169050919050565b6000611b5282611b27565b9050919050565b611b6281611b47565b82525050565b6000602082019050611b7d6000830184611b59565b92915050565b611b8c81611b47565b8114611b9757600080fd5b50565b600081359050611ba981611b83565b92915050565b60008060408385031215611bc657611bc5611944565b5b6000611bd485828601611b9a565b9250506020611be585828601611ae5565b9150509250929050565b600080600060608486031215611c0857611c07611944565b5b6000611c1686828701611b9a565b9350506020611c2786828701611b9a565b9250506040611c3886828701611ae5565b9150509250925092565b600060208284031215611c5857611c57611944565b5b6000611c6684828501611b9a565b91505092915050565b611c7881611ac4565b82525050565b6000602082019050611c936000830184611c6f565b92915050565b611ca2816119d3565b8114611cad57600080fd5b50565b600081359050611cbf81611c99565b92915050565b60008060408385031215611cdc57611cdb611944565b5b6000611cea85828601611b9a565b9250506020611cfb85828601611cb0565b9150509250929050565b600080fd5b600080fd5b7f4e487b7100000000000000000000000000000000000000000000000000000000600052604160045260246000fd5b611d4782611a58565b810181811067ffffffffffffffff82111715611d6657611d65611d0f565b5b80604052505050565b6000611d7961193a565b9050611d858282611d3e565b919050565b600067ffffffffffffffff821115611da557611da4611d0f565b5b611dae82611a58565b9050602081019050919050565b82818337600083830152505050565b6000611ddd611dd884611d8a565b611d6f565b905082815260208101848484011115611df957611df8611d0a565b5b611e04848285611dbb565b509392505050565b600082601f830112611e2157611e20611d05565b5b8135611e31848260208601611dca565b91505092915050565b60008060008060808587031215611e5457611e53611944565b5b6000611e6287828801611b9a565b9450506020611e7387828801611b9a565b9350506040611e8487828801611ae5565b925050606085013567ffffffffffffffff811115611ea557611ea4611949565b5b611eb187828801611e0c565b91505092959194509250565b600067ffffffffffffffff821115611ed857611ed7611d0f565b5b611ee182611a58565b9050602081019050919050565b6000611f01611efc84611ebd565b611d6f565b905082815260208101848484011115611f1d57611f1c611d0a565b5b611f28848285611dbb565b509392505050565b600082601f830112611f4557611f44611d05565b5b8135611f55848260208601611eee565b91505092915050565b600060208284031215611f7457611f73611944565b5b600082013567ffffffffffffffff811115611f9257611f91611949565b5b611f9e84828501611f30565b91505092915050565b60008060408385031215611fbe57611fbd611944565b5b6000611fcc85828601611b9a565b9250506020611fdd85828601611b9a565b9150509250929050565b7f4e487b7100000000000000000000000000000000000000000000000000000000600052602260045260246000fd5b6000600282049050600182168061202e57607f821691505b6020821081141561204257612041611fe7565b5b50919050565b7f4552433732313a20617070726f76656420717565727920666f72206e6f6e657860008201527f697374656e7420746f6b656e0000000000000000000000000000000000000000602082015250565b60006120a4602c83611a14565b91506120af82612048565b604082019050919050565b600060208201905081810360008301526120d381612097565b9050919050565b7f4552433732313a20617070726f76616c20746f2063757272656e74206f776e6560008201527f7200000000000000000000000000000000000000000000000000000000000000602082015250565b6000612136602183611a14565b9150612141826120da565b604082019050919050565b6000602082019050818103600083015261216581612129565b9050919050565b7f4552433732313a20617070726f76652063616c6c6572206973206e6f74206f7760008201527f6e6572206e6f7220617070726f76656420666f7220616c6c0000000000000000602082015250565b60006121c8603883611a14565b91506121d38261216c565b604082019050919050565b600060208201905081810360008301526121f7816121bb565b9050919050565b7f4552433732313a207472616e736665722063616c6c6572206973206e6f74206f60008201527f776e6572206e6f7220617070726f766564000000000000000000000000000000602082015250565b600061225a603183611a14565b9150612265826121fe565b604082019050919050565b600060208201905081810360008301526122898161224d565b9050919050565b7f4552433732313a206f776e657220717565727920666f72206e6f6e657869737460008201527f656e7420746f6b656e0000000000000000000000000000000000000000000000602082015250565b60006122ec602983611a14565b91506122f782612290565b604082019050919050565b6000602082019050818103600083015261231b816122df565b9050919050565b7f4552433732313a2062616c616e636520717565727920666f7220746865207a6560008201527f726f206164647265737300000000000000000000000000000000000000000000602082015250565b600061237e602a83611a14565b915061238982612322565b604082019050919050565b600060208201905081810360008301526123ad81612371565b9050919050565b7f45524337323155524953746f726167653a2055524920717565727920666f722060008201527f6e6f6e6578697374656e7420746f6b656e000000000000000000000000000000602082015250565b6000612410603183611a14565b915061241b826123b4565b604082019050919050565b6000602082019050818103600083015261243f81612403565b9050919050565b600081905092915050565b600061245c82611a09565b6124668185612446565b9350612476818560208601611a25565b80840191505092915050565b600061248e8285612451565b915061249a8284612451565b91508190509392505050565b7f4e487b7100000000000000000000000000000000000000000000000000000000600052601160045260246000fd5b60006124e082611ac4565b91507fffffffffffffffffffffffffffffffffffffffffffffffffffffffffffffffff821415612513576125126124a6565b5b600182019050919050565b7f4552433732313a206f70657261746f7220717565727920666f72206e6f6e657860008201527f697374656e7420746f6b656e0000000000000000000000000000000000000000602082015250565b600061257a602c83611a14565b91506125858261251e565b604082019050919050565b600060208201905081810360008301526125a98161256d565b9050919050565b7f4552433732313a207472616e736665722066726f6d20696e636f72726563742060008201527f6f776e6572000000000000000000000000000000000000000000000000000000602082015250565b600061260c602583611a14565b9150612617826125b0565b604082019050919050565b6000602082019050818103600083015261263b816125ff565b9050919050565b7f4552433732313a207472616e7366657220746f20746865207a65726f2061646460008201527f7265737300000000000000000000000000000000000000000000000000000000602082015250565b600061269e602483611a14565b91506126a982612642565b604082019050919050565b600060208201905081810360008301526126cd81612691565b9050919050565b60006126df82611ac4565b91506126ea83611ac4565b9250828210156126fd576126fc6124a6565b5b828203905092915050565b600061271382611ac4565b915061271e83611ac4565b9250827fffffffffffffffffffffffffffffffffffffffffffffffffffffffffffffffff03821115612753576127526124a6565b5b828201905092915050565b7f4552433732313a20617070726f766520746f2063616c6c657200000000000000600082015250565b6000612794601983611a14565b915061279f8261275e565b602082019050919050565b600060208201905081810360008301526127c381612787565b9050919050565b7f4552433732313a207472616e7366657220746f206e6f6e20455243373231526560008201527f63656976657220696d706c656d656e7465720000000000000000000000000000602082015250565b6000612826603283611a14565b9150612831826127ca565b604082019050919050565b6000602082019050818103600083015261285581612819565b9050919050565b7f4552433732314d657461646174613a2055524920717565727920666f72206e6f60008201527f6e6578697374656e7420746f6b656e0000000000000000000000000000000000602082015250565b60006128b8602f83611a14565b91506128c38261285c565b604082019050919050565b600060208201905081810360008301526128e7816128ab565b9050919050565b7f45524337323155524953746f726167653a2055524920736574206f66206e6f6e60008201527f6578697374656e7420746f6b656e000000000000000000000000000000000000602082015250565b600061294a602e83611a14565b9150612955826128ee565b604082019050919050565b600060208201905081810360008301526129798161293d565b9050919050565b600081519050919050565b600082825260208201905092915050565b60006129a782612980565b6129b1818561298b565b93506129c1818560208601611a25565b6129ca81611a58565b840191505092915050565b60006080820190506129ea6000830187611b59565b6129f76020830186611b59565b612a046040830185611c6f565b8181036060830152612a16818461299c565b905095945050505050565b600081519050612a308161197a565b92915050565b600060208284031215612a4c57612a4b611944565b5b6000612a5a84828501612a21565b91505092915050565b7f4e487b7100000000000000000000000000000000000000000000000000000000600052601260045260246000fd5b6000612a9d82611ac4565b9150612aa883611ac4565b925082612ab857612ab7612a63565b5b828204905092915050565b6000612ace82611ac4565b9150612ad983611ac4565b925082612ae957612ae8612a63565b5b828206905092915050565b7f4e487b7100000000000000000000000000000000000000000000000000000000600052603260045260246000fd5b7f4552433732313a206d696e7420746f20746865207a65726f2061646472657373600082015250565b6000612b59602083611a14565b9150612b6482612b23565b602082019050919050565b60006020820190508181036000830152612b8881612b4c565b9050919050565b7f4552433732313a20746f6b656e20616c7265616479206d696e74656400000000600082015250565b6000612bc5601c83611a14565b9150612bd082612b8f565b602082019050919050565b60006020820190508181036000830152612bf481612bb8565b905091905056fea264697066735822122006c785da5752f91b94656138b8db2e43b2f2534c2919f1ec581ad1de11a5946c64736f6c634300080a0033",
  "linkReferences": {},
  "deployedLinkReferences": {}
}