{
  "_format": "hh-sol-artifact-1",
  "contractName": "SmallLoan",
  "sourceName": "contracts/LoanPool.sol",
  "abi": [
    {
      "inputs": [
        {
          "internalType": "uint256",
          "name": "_feePercent",
          "type": "uint256"
        }
      ],
      "stateMutability": "nonpayable",
      "type": "constructor"
    },
    {
      "anonymous": false,
      "inputs": [
        {
          "indexed": false,
          "internalType": "address",
          "name": "borrower",
          "type": "address"
        },
        {
          "indexed": false,
          "internalType": "address",
          "name": "lender",
          "type": "address"
        },
        {
          "indexed": false,
          "internalType": "uint256",
          "name": "amnt",
          "type": "uint256"
        },
        {
          "indexed": false,
          "internalType": "uint256",
          "name": "id",
          "type": "uint256"
        }
      ],
      "name": "AcceptedLoan",
      "type": "event"
    },
    {
      "anonymous": false,
      "inputs": [
        {
          "indexed": false,
          "internalType": "address",
          "name": "retractor",
          "type": "address"
        },
        {
          "indexed": false,
          "internalType": "uint256",
          "name": "id",
          "type": "uint256"
        }
      ],
      "name": "CeaseLoan",
      "type": "event"
    },
    {
      "anonymous": false,
      "inputs": [
        {
          "indexed": false,
          "internalType": "address",
          "name": "collection",
          "type": "address"
        }
      ],
      "name": "CollectionAdded",
      "type": "event"
    },
    {
      "anonymous": false,
      "inputs": [
        {
          "indexed": false,
          "internalType": "address",
          "name": "borrower",
          "type": "address"
        },
        {
          "indexed": false,
          "internalType": "address",
          "name": "lender",
          "type": "address"
        },
        {
          "indexed": false,
          "internalType": "uint256",
          "name": "id",
          "type": "uint256"
        }
      ],
      "name": "LoanDefaulted",
      "type": "event"
    },
    {
      "anonymous": false,
      "inputs": [
        {
          "indexed": false,
          "internalType": "address",
          "name": "borrower",
          "type": "address"
        },
        {
          "indexed": false,
          "internalType": "uint256",
          "name": "id",
          "type": "uint256"
        }
      ],
      "name": "LoanPaid",
      "type": "event"
    },
    {
      "anonymous": false,
      "inputs": [
        {
          "indexed": false,
          "internalType": "address",
          "name": "proposer",
          "type": "address"
        },
        {
          "indexed": false,
          "internalType": "uint256",
          "name": "id",
          "type": "uint256"
        }
      ],
      "name": "PostedLoan",
      "type": "event"
    },
    {
      "inputs": [],
      "name": "_fee",
      "outputs": [
        {
          "internalType": "uint256",
          "name": "",
          "type": "uint256"
        }
      ],
      "stateMutability": "view",
      "type": "function"
    },
    {
      "inputs": [],
      "name": "_owner",
      "outputs": [
        {
          "internalType": "address",
          "name": "",
          "type": "address"
        }
      ],
      "stateMutability": "view",
      "type": "function"
    },
    {
      "inputs": [
        {
          "internalType": "uint256",
          "name": "_loanId",
          "type": "uint256"
        }
      ],
      "name": "acceptLoan",
      "outputs": [],
      "stateMutability": "payable",
      "type": "function"
    },
    {
      "inputs": [],
      "name": "feePercent",
      "outputs": [
        {
          "internalType": "uint256",
          "name": "",
          "type": "uint256"
        }
      ],
      "stateMutability": "view",
      "type": "function"
    },
    {
      "inputs": [
        {
          "internalType": "uint256",
          "name": "_id",
          "type": "uint256"
        }
      ],
      "name": "liquidate",
      "outputs": [],
      "stateMutability": "nonpayable",
      "type": "function"
    },
    {
      "inputs": [
        {
          "internalType": "uint256",
          "name": "_id",
          "type": "uint256"
        }
      ],
      "name": "payInFull",
      "outputs": [],
      "stateMutability": "payable",
      "type": "function"
    },
    {
      "inputs": [
        {
          "internalType": "contract IERC721",
          "name": "_nft",
          "type": "address"
        },
        {
          "internalType": "uint256",
          "name": "_nftId",
          "type": "uint256"
        },
        {
          "internalType": "uint256",
          "name": "_reqAmnt",
          "type": "uint256"
        },
        {
          "internalType": "uint256",
          "name": "_toPay",
          "type": "uint256"
        },
        {
          "internalType": "uint256",
          "name": "_duration",
          "type": "uint256"
        }
      ],
      "name": "propose",
      "outputs": [],
      "stateMutability": "nonpayable",
      "type": "function"
    },
    {
      "inputs": [
        {
          "internalType": "uint256",
          "name": "_id",
          "type": "uint256"
        }
      ],
      "name": "retract",
      "outputs": [],
      "stateMutability": "nonpayable",
      "type": "function"
    },
    {
      "inputs": [],
      "name": "smallLoanId",
      "outputs": [
        {
          "internalType": "uint96",
          "name": "",
          "type": "uint96"
        }
      ],
      "stateMutability": "view",
      "type": "function"
    },
    {
      "inputs": [],
      "name": "withdraw",
      "outputs": [],
      "stateMutability": "nonpayable",
      "type": "function"
    }
  ],
  "bytecode": "0x60c06040523480156200001157600080fd5b50604051620024b7380380620024b78339818101604052810190620000379190620000ba565b3373ffffffffffffffffffffffffffffffffffffffff1660808173ffffffffffffffffffffffffffffffffffffffff16815250508060a0818152505050620000ec565b600080fd5b6000819050919050565b62000094816200007f565b8114620000a057600080fd5b50565b600081519050620000b48162000089565b92915050565b600060208284031215620000d357620000d26200007a565b5b6000620000e384828501620000a3565b91505092915050565b60805160a0516123896200012e600039600081816108bf01528181610b1001526117f701526000818161020e0152818161029c01526117cf01526123896000f3fe6080604052600436106100915760003560e01c80639c4d22b7116100595780639c4d22b7146101465780639fab665614610171578063adfbe22f1461019a578063b2bdfa7b146101b6578063c5b37c22146101e157610091565b80633ccfd60b14610096578063415f1240146100ad57806355cf1873146100d65780637fd6f15c146100f25780638cea6a931461011d575b600080fd5b3480156100a257600080fd5b506100ab61020c565b005b3480156100b957600080fd5b506100d460048036038101906100cf9190611856565b610303565b005b6100f060048036038101906100eb9190611856565b610727565b005b3480156100fe57600080fd5b50610107610b0e565b6040516101149190611892565b60405180910390f35b34801561012957600080fd5b50610144600480360381019061013f919061191d565b610b32565b005b34801561015257600080fd5b5061015b610fbc565b60405161016891906119bf565b60405180910390f35b34801561017d57600080fd5b5061019860048036038101906101939190611856565b610fd8565b005b6101b460048036038101906101af9190611856565b611258565b005b3480156101c257600080fd5b506101cb6117cb565b6040516101d891906119e9565b60405180910390f35b3480156101ed57600080fd5b506101f66117f3565b6040516102039190611892565b60405180910390f35b7f000000000000000000000000000000000000000000000000000000000000000073ffffffffffffffffffffffffffffffffffffffff163373ffffffffffffffffffffffffffffffffffffffff161461029a576040517f08c379a000000000000000000000000000000000000000000000000000000000815260040161029190611a61565b60405180910390fd5b7f000000000000000000000000000000000000000000000000000000000000000073ffffffffffffffffffffffffffffffffffffffff166108fc479081150290604051600060405180830381858888f19350505050158015610300573d6000803e3d6000fd5b50565b808060026000838152602001908152602001600020600801541461035c576040517f08c379a000000000000000000000000000000000000000000000000000000000815260040161035390611acd565b60405180910390fd5b600060026000848152602001908152602001600020604051806101600160405290816000820160009054906101000a900473ffffffffffffffffffffffffffffffffffffffff1673ffffffffffffffffffffffffffffffffffffffff1673ffffffffffffffffffffffffffffffffffffffff1681526020016001820160009054906101000a900473ffffffffffffffffffffffffffffffffffffffff1673ffffffffffffffffffffffffffffffffffffffff1673ffffffffffffffffffffffffffffffffffffffff1681526020016002820160009054906101000a900473ffffffffffffffffffffffffffffffffffffffff1673ffffffffffffffffffffffffffffffffffffffff1673ffffffffffffffffffffffffffffffffffffffff1681526020016003820154815260200160048201548152602001600582015481526020016006820154815260200160078201548152602001600882015481526020016009820160009054906101000a900460ff161515151581526020016009820160019054906101000a900460ff16151515158152505090508060e001514211801561050857508061014001515b610547576040517f08c379a000000000000000000000000000000000000000000000000000000000815260040161053e90611b39565b60405180910390fd5b806040015173ffffffffffffffffffffffffffffffffffffffff163373ffffffffffffffffffffffffffffffffffffffff16146105b9576040517f08c379a00000000000000000000000000000000000000000000000000000000081526004016105b090611ba5565b60405180910390fd5b806101200151156105ff576040517f08c379a00000000000000000000000000000000000000000000000000000000081526004016105f690611c11565b60405180910390fd5b6002600084815260200190815260200160002060000160009054906101000a900473ffffffffffffffffffffffffffffffffffffffff1673ffffffffffffffffffffffffffffffffffffffff166323b872dd30836040015184606001516040518463ffffffff1660e01b815260040161067a93929190611c31565b600060405180830381600087803b15801561069457600080fd5b505af11580156106a8573d6000803e3d6000fd5b5050505060006002600085815260200190815260200160002060090160016101000a81548160ff0219169083151502179055507f936b6386c376aebe559a11566ad4bf92fe9d90ffee260a64d247408f3c93581181602001518260400151836060015160405161071a93929190611c31565b60405180910390a1505050565b8080600260008381526020019081526020016000206008015414610780576040517f08c379a000000000000000000000000000000000000000000000000000000000815260040161077790611acd565b60405180910390fd5b3373ffffffffffffffffffffffffffffffffffffffff166002600084815260200190815260200160002060010160009054906101000a900473ffffffffffffffffffffffffffffffffffffffff1673ffffffffffffffffffffffffffffffffffffffff1614610824576040517f08c379a000000000000000000000000000000000000000000000000000000000815260040161081b90611cb4565b60405180910390fd5b600260008381526020019081526020016000206005015434101561087d576040517f08c379a000000000000000000000000000000000000000000000000000000000815260040161087490611d20565b60405180910390fd5b6000600260008481526020019081526020016000206004015460026000858152602001908152602001600020600501546108b79190611d6f565b9050600060647f0000000000000000000000000000000000000000000000000000000000000000836108e99190611da3565b6108f39190611e2c565b90506002600085815260200190815260200160002060020160009054906101000a900473ffffffffffffffffffffffffffffffffffffffff1673ffffffffffffffffffffffffffffffffffffffff166108fc8260026000888152602001908152602001600020600501546109679190611d6f565b9081150290604051600060405180830381858888f19350505050158015610992573d6000803e3d6000fd5b506000600260008681526020019081526020016000206005018190555060016002600086815260200190815260200160002060090160006101000a81548160ff0219169083151502179055506002600085815260200190815260200160002060000160009054906101000a900473ffffffffffffffffffffffffffffffffffffffff1673ffffffffffffffffffffffffffffffffffffffff166323b872dd306002600088815260200190815260200160002060010160009054906101000a900473ffffffffffffffffffffffffffffffffffffffff1660026000898152602001908152602001600020600301546040518463ffffffff1660e01b8152600401610a9d93929190611c31565b600060405180830381600087803b158015610ab757600080fd5b505af1158015610acb573d6000803e3d6000fd5b505050507f884a03e54e76786c0f7b628ffa2ff73d9f57e07ac9cc8a3f2e30331e850497cc3385604051610b00929190611e5d565b60405180910390a150505050565b7f000000000000000000000000000000000000000000000000000000000000000081565b828211610b74576040517f08c379a0000000000000000000000000000000000000000000000000000000008152600401610b6b90611ef8565b60405180910390fd5b3073ffffffffffffffffffffffffffffffffffffffff168573ffffffffffffffffffffffffffffffffffffffff1663081812fc866040518263ffffffff1660e01b8152600401610bc49190611892565b602060405180830381865afa158015610be1573d6000803e3d6000fd5b505050506040513d601f19601f82011682018060405250810190610c059190611f44565b73ffffffffffffffffffffffffffffffffffffffff1614610c5b576040517f08c379a0000000000000000000000000000000000000000000000000000000008152600401610c5290611fbd565b60405180910390fd5b8473ffffffffffffffffffffffffffffffffffffffff166323b872dd3330876040518463ffffffff1660e01b8152600401610c9893929190611c31565b600060405180830381600087803b158015610cb257600080fd5b505af1158015610cc6573d6000803e3d6000fd5b5050505060006040518061016001604052808773ffffffffffffffffffffffffffffffffffffffff1681526020013373ffffffffffffffffffffffffffffffffffffffff168152602001600073ffffffffffffffffffffffffffffffffffffffff168152602001868152602001858152602001848152602001600081526020016201518084610d559190611da3565b815260200160008081819054906101000a90046bffffffffffffffffffffffff16610d7f90611fdd565b91906101000a8154816bffffffffffffffffffffffff02191690836bffffffffffffffffffffffff16021790556bffffffffffffffffffffffff16815260200160001515815260200160001515815250905080600160008060009054906101000a90046bffffffffffffffffffffffff166bffffffffffffffffffffffff16815260200190815260200160002060008201518160000160006101000a81548173ffffffffffffffffffffffffffffffffffffffff021916908373ffffffffffffffffffffffffffffffffffffffff16021790555060208201518160010160006101000a81548173ffffffffffffffffffffffffffffffffffffffff021916908373ffffffffffffffffffffffffffffffffffffffff16021790555060408201518160020160006101000a81548173ffffffffffffffffffffffffffffffffffffffff021916908373ffffffffffffffffffffffffffffffffffffffff160217905550606082015181600301556080820151816004015560a0820151816005015560c0820151816006015560e0820151816007015561010082015181600801556101208201518160090160006101000a81548160ff0219169083151502179055506101408201518160090160016101000a81548160ff0219169083151502179055509050507fa86b9ae4d53078e206880b1e17851b5d43a4884eab526218f26dfc4c50f99fb43360008054906101000a90046bffffffffffffffffffffffff16604051610fac92919061204d565b60405180910390a1505050505050565b60008054906101000a90046bffffffffffffffffffffffff1681565b8060026000838152602001908152602001600020600801541415611031576040517f08c379a0000000000000000000000000000000000000000000000000000000008152600401611028906120c2565b60405180910390fd5b3373ffffffffffffffffffffffffffffffffffffffff166001600083815260200190815260200160002060010160009054906101000a900473ffffffffffffffffffffffffffffffffffffffff1673ffffffffffffffffffffffffffffffffffffffff16146110d5576040517f08c379a00000000000000000000000000000000000000000000000000000000081526004016110cc9061212e565b60405180910390fd5b6001600082815260200190815260200160002060000160009054906101000a900473ffffffffffffffffffffffffffffffffffffffff1673ffffffffffffffffffffffffffffffffffffffff166323b872dd306001600085815260200190815260200160002060010160009054906101000a900473ffffffffffffffffffffffffffffffffffffffff1660016000868152602001908152602001600020600301546040518463ffffffff1660e01b815260040161119493929190611c31565b600060405180830381600087803b1580156111ae57600080fd5b505af11580156111c2573d6000803e3d6000fd5b5050505060006001600083815260200190815260200160002060010160006101000a81548173ffffffffffffffffffffffffffffffffffffffff021916908373ffffffffffffffffffffffffffffffffffffffff1602179055507f889d79b996b8e51a09bd6158af8d6f68c01a95af8be3c300cfed7cc53ea65f42338260405161124d929190611e5d565b60405180910390a150565b80600260008381526020019081526020016000206008015414156112b1576040517f08c379a00000000000000000000000000000000000000000000000000000000081526004016112a89061219a565b60405180910390fd5b600060016000838152602001908152602001600020604051806101600160405290816000820160009054906101000a900473ffffffffffffffffffffffffffffffffffffffff1673ffffffffffffffffffffffffffffffffffffffff1673ffffffffffffffffffffffffffffffffffffffff1681526020016001820160009054906101000a900473ffffffffffffffffffffffffffffffffffffffff1673ffffffffffffffffffffffffffffffffffffffff1673ffffffffffffffffffffffffffffffffffffffff1681526020016002820160009054906101000a900473ffffffffffffffffffffffffffffffffffffffff1673ffffffffffffffffffffffffffffffffffffffff1673ffffffffffffffffffffffffffffffffffffffff1681526020016003820154815260200160048201548152602001600582015481526020016006820154815260200160078201548152602001600882015481526020016009820160009054906101000a900460ff161515151581526020016009820160019054906101000a900460ff1615151515815250509050600073ffffffffffffffffffffffffffffffffffffffff16816020015173ffffffffffffffffffffffffffffffffffffffff1614156114bc576040517f08c379a00000000000000000000000000000000000000000000000000000000081526004016114b390612206565b60405180910390fd5b8060800151341015611503576040517f08c379a00000000000000000000000000000000000000000000000000000000081526004016114fa90612298565b60405180910390fd5b806020015173ffffffffffffffffffffffffffffffffffffffff166108fc82608001519081150290604051600060405180830381858888f19350505050158015611551573d6000803e3d6000fd5b50604051806101600160405280826000015173ffffffffffffffffffffffffffffffffffffffff168152602001826020015173ffffffffffffffffffffffffffffffffffffffff1681526020013373ffffffffffffffffffffffffffffffffffffffff16815260200182606001518152602001826080015181526020018260a001518152602001428360c001516115e891906122b8565b8152602001428360e001516115fd91906122b8565b8152602001838152602001600015158152602001600115158152506002600084815260200190815260200160002060008201518160000160006101000a81548173ffffffffffffffffffffffffffffffffffffffff021916908373ffffffffffffffffffffffffffffffffffffffff16021790555060208201518160010160006101000a81548173ffffffffffffffffffffffffffffffffffffffff021916908373ffffffffffffffffffffffffffffffffffffffff16021790555060408201518160020160006101000a81548173ffffffffffffffffffffffffffffffffffffffff021916908373ffffffffffffffffffffffffffffffffffffffff160217905550606082015181600301556080820151816004015560a0820151816005015560c0820151816006015560e0820151816007015561010082015181600801556101208201518160090160006101000a81548160ff0219169083151502179055506101408201518160090160016101000a81548160ff0219169083151502179055509050507fb146604a9b48a85fc611f6de5e73271318c39ea60adba8244122d3b52a780fd18160200151338360800151856040516117bf949392919061230e565b60405180910390a15050565b60007f0000000000000000000000000000000000000000000000000000000000000000905090565b60007f0000000000000000000000000000000000000000000000000000000000000000905090565b600080fd5b6000819050919050565b61183381611820565b811461183e57600080fd5b50565b6000813590506118508161182a565b92915050565b60006020828403121561186c5761186b61181b565b5b600061187a84828501611841565b91505092915050565b61188c81611820565b82525050565b60006020820190506118a76000830184611883565b92915050565b600073ffffffffffffffffffffffffffffffffffffffff82169050919050565b60006118d8826118ad565b9050919050565b60006118ea826118cd565b9050919050565b6118fa816118df565b811461190557600080fd5b50565b600081359050611917816118f1565b92915050565b600080600080600060a086880312156119395761193861181b565b5b600061194788828901611908565b955050602061195888828901611841565b945050604061196988828901611841565b935050606061197a88828901611841565b925050608061198b88828901611841565b9150509295509295909350565b60006bffffffffffffffffffffffff82169050919050565b6119b981611998565b82525050565b60006020820190506119d460008301846119b0565b92915050565b6119e3816118cd565b82525050565b60006020820190506119fe60008301846119da565b92915050565b600082825260208201905092915050565b7f4e6f7420746865206f776e6572206f662074686520636f6e7472616374210000600082015250565b6000611a4b601e83611a04565b9150611a5682611a15565b602082019050919050565b60006020820190508181036000830152611a7a81611a3e565b9050919050565b7f496e76616c6964206c6f616e2100000000000000000000000000000000000000600082015250565b6000611ab7600d83611a04565b9150611ac282611a81565b602082019050919050565b60006020820190508181036000830152611ae681611aaa565b9050919050565b7f4c6f616e20706572696f64207374696c6c206163746976652100000000000000600082015250565b6000611b23601983611a04565b9150611b2e82611aed565b602082019050919050565b60006020820190508181036000830152611b5281611b16565b9050919050565b7f4e6f74206c656e64657200000000000000000000000000000000000000000000600082015250565b6000611b8f600a83611a04565b9150611b9a82611b59565b602082019050919050565b60006020820190508181036000830152611bbe81611b82565b9050919050565b7f4c6f616e207761732070616964206f6666210000000000000000000000000000600082015250565b6000611bfb601283611a04565b9150611c0682611bc5565b602082019050919050565b60006020820190508181036000830152611c2a81611bee565b9050919050565b6000606082019050611c4660008301866119da565b611c5360208301856119da565b611c606040830184611883565b949350505050565b7f43616e206f6e6c7920706179206f666620796f7572206f776e206c6f616e7321600082015250565b6000611c9e602083611a04565b9150611ca982611c68565b602082019050919050565b60006020820190508181036000830152611ccd81611c91565b9050919050565b7f4d75737420706179206c6f616e20696e2066756c6c2100000000000000000000600082015250565b6000611d0a601683611a04565b9150611d1582611cd4565b602082019050919050565b60006020820190508181036000830152611d3981611cfd565b9050919050565b7f4e487b7100000000000000000000000000000000000000000000000000000000600052601160045260246000fd5b6000611d7a82611820565b9150611d8583611820565b925082821015611d9857611d97611d40565b5b828203905092915050565b6000611dae82611820565b9150611db983611820565b9250817fffffffffffffffffffffffffffffffffffffffffffffffffffffffffffffffff0483118215151615611df257611df1611d40565b5b828202905092915050565b7f4e487b7100000000000000000000000000000000000000000000000000000000600052601260045260246000fd5b6000611e3782611820565b9150611e4283611820565b925082611e5257611e51611dfd565b5b828204905092915050565b6000604082019050611e7260008301856119da565b611e7f6020830184611883565b9392505050565b7f43616e6e6f742072657175657374206d6f7265207468616e20796f752070617960008201527f2100000000000000000000000000000000000000000000000000000000000000602082015250565b6000611ee2602183611a04565b9150611eed82611e86565b604082019050919050565b60006020820190508181036000830152611f1181611ed5565b9050919050565b611f21816118cd565b8114611f2c57600080fd5b50565b600081519050611f3e81611f18565b92915050565b600060208284031215611f5a57611f5961181b565b5b6000611f6884828501611f2f565b91505092915050565b7f5472616e73666572206e6f7420617070726f7665642100000000000000000000600082015250565b6000611fa7601683611a04565b9150611fb282611f71565b602082019050919050565b60006020820190508181036000830152611fd681611f9a565b9050919050565b6000611fe882611998565b91506bffffffffffffffffffffffff82141561200757612006611d40565b5b600182019050919050565b6000819050919050565b600061203761203261202d84611998565b612012565b611820565b9050919050565b6120478161201c565b82525050565b600060408201905061206260008301856119da565b61206f602083018461203e565b9392505050565b7f4c6f616e20697320616c72656164792061637469766521000000000000000000600082015250565b60006120ac601783611a04565b91506120b782612076565b602082019050919050565b600060208201905081810360008301526120db8161209f565b9050919050565b7f43616e206f6e6c79207265747261637420796f7572206c6f616e732100000000600082015250565b6000612118601c83611a04565b9150612123826120e2565b602082019050919050565b600060208201905081810360008301526121478161210b565b9050919050565b7f4c6f616e2068617320616c7265616479206265656e2061636365707465642100600082015250565b6000612184601f83611a04565b915061218f8261214e565b602082019050919050565b600060208201905081810360008301526121b381612177565b9050919050565b7f4c6f616e20686173206265656e20726574726163746564210000000000000000600082015250565b60006121f0601883611a04565b91506121fb826121ba565b602082019050919050565b6000602082019050818103600083015261221f816121e3565b9050919050565b7f596f75206e65656420746f206c6f616e206f7574207468652066756c6c20616d60008201527f6f756e7421000000000000000000000000000000000000000000000000000000602082015250565b6000612282602583611a04565b915061228d82612226565b604082019050919050565b600060208201905081810360008301526122b181612275565b9050919050565b60006122c382611820565b91506122ce83611820565b9250827fffffffffffffffffffffffffffffffffffffffffffffffffffffffffffffffff0382111561230357612302611d40565b5b828201905092915050565b600060808201905061232360008301876119da565b61233060208301866119da565b61233d6040830185611883565b61234a6060830184611883565b9594505050505056fea2646970667358221220e4be2d99daaf87dab724e0bd3a535642c59e469e53e8f1920e4b920ae74cc61b64736f6c634300080a0033",
  "linkReferences": {},
  "deployedLinkReferences": {}
}