{
  "_format": "hh-sol-artifact-1",
  "contractName": "SmallLoan",
  "sourceName": "contracts/LoanPool.sol",
  "abi": [
    {
      "inputs": [
        {
          "internalType": "uint256",
          "name": "_feePercent",
          "type": "uint256"
        }
      ],
      "stateMutability": "nonpayable",
      "type": "constructor"
    },
    {
      "anonymous": false,
      "inputs": [
        {
          "indexed": false,
          "internalType": "address",
          "name": "borrower",
          "type": "address"
        },
        {
          "indexed": false,
          "internalType": "address",
          "name": "lender",
          "type": "address"
        },
        {
          "indexed": false,
          "internalType": "uint256",
          "name": "amnt",
          "type": "uint256"
        },
        {
          "indexed": false,
          "internalType": "uint256",
          "name": "id",
          "type": "uint256"
        }
      ],
      "name": "AcceptedLoan",
      "type": "event"
    },
    {
      "anonymous": false,
      "inputs": [
        {
          "indexed": false,
          "internalType": "address",
          "name": "retractor",
          "type": "address"
        },
        {
          "indexed": false,
          "internalType": "uint256",
          "name": "id",
          "type": "uint256"
        }
      ],
      "name": "CeaseLoan",
      "type": "event"
    },
    {
      "anonymous": false,
      "inputs": [
        {
          "indexed": false,
          "internalType": "address",
          "name": "collection",
          "type": "address"
        }
      ],
      "name": "CollectionAdded",
      "type": "event"
    },
    {
      "anonymous": false,
      "inputs": [
        {
          "indexed": false,
          "internalType": "address",
          "name": "borrower",
          "type": "address"
        },
        {
          "indexed": false,
          "internalType": "address",
          "name": "lender",
          "type": "address"
        },
        {
          "indexed": false,
          "internalType": "uint256",
          "name": "id",
          "type": "uint256"
        }
      ],
      "name": "LoanDefaulted",
      "type": "event"
    },
    {
      "anonymous": false,
      "inputs": [
        {
          "indexed": false,
          "internalType": "address",
          "name": "borrower",
          "type": "address"
        },
        {
          "indexed": false,
          "internalType": "uint256",
          "name": "id",
          "type": "uint256"
        }
      ],
      "name": "LoanPaid",
      "type": "event"
    },
    {
      "anonymous": false,
      "inputs": [
        {
          "indexed": false,
          "internalType": "address",
          "name": "proposer",
          "type": "address"
        },
        {
          "indexed": false,
          "internalType": "uint256",
          "name": "id",
          "type": "uint256"
        }
      ],
      "name": "PostedLoan",
      "type": "event"
    },
    {
      "inputs": [],
      "name": "_fee",
      "outputs": [
        {
          "internalType": "uint256",
          "name": "",
          "type": "uint256"
        }
      ],
      "stateMutability": "view",
      "type": "function"
    },
    {
      "inputs": [],
      "name": "_owner",
      "outputs": [
        {
          "internalType": "address",
          "name": "",
          "type": "address"
        }
      ],
      "stateMutability": "view",
      "type": "function"
    },
    {
      "inputs": [
        {
          "internalType": "uint256",
          "name": "_loanId",
          "type": "uint256"
        }
      ],
      "name": "acceptLoan",
      "outputs": [],
      "stateMutability": "payable",
      "type": "function"
    },
    {
      "inputs": [],
      "name": "feePercent",
      "outputs": [
        {
          "internalType": "uint256",
          "name": "",
          "type": "uint256"
        }
      ],
      "stateMutability": "view",
      "type": "function"
    },
    {
      "inputs": [
        {
          "internalType": "uint256",
          "name": "_id",
          "type": "uint256"
        }
      ],
      "name": "liquidate",
      "outputs": [],
      "stateMutability": "nonpayable",
      "type": "function"
    },
    {
      "inputs": [
        {
          "internalType": "uint256",
          "name": "_id",
          "type": "uint256"
        }
      ],
      "name": "payInFull",
      "outputs": [],
      "stateMutability": "payable",
      "type": "function"
    },
    {
      "inputs": [
        {
          "internalType": "contract IERC721",
          "name": "_nft",
          "type": "address"
        },
        {
          "internalType": "uint256",
          "name": "_nftId",
          "type": "uint256"
        },
        {
          "internalType": "uint256",
          "name": "_reqAmnt",
          "type": "uint256"
        },
        {
          "internalType": "uint256",
          "name": "_toPay",
          "type": "uint256"
        },
        {
          "internalType": "uint256",
          "name": "_duration",
          "type": "uint256"
        }
      ],
      "name": "propose",
      "outputs": [],
      "stateMutability": "nonpayable",
      "type": "function"
    },
    {
      "inputs": [
        {
          "internalType": "uint256",
          "name": "_id",
          "type": "uint256"
        }
      ],
      "name": "retract",
      "outputs": [],
      "stateMutability": "nonpayable",
      "type": "function"
    },
    {
      "inputs": [],
      "name": "smallLoanId",
      "outputs": [
        {
          "internalType": "uint96",
          "name": "",
          "type": "uint96"
        }
      ],
      "stateMutability": "view",
      "type": "function"
    },
    {
      "inputs": [],
      "name": "withdraw",
      "outputs": [],
      "stateMutability": "nonpayable",
      "type": "function"
    }
  ],
  "bytecode": "0x60c06040523480156200001157600080fd5b506040516200247a3803806200247a8339818101604052810190620000379190620000ba565b3373ffffffffffffffffffffffffffffffffffffffff1660808173ffffffffffffffffffffffffffffffffffffffff16815250508060a0818152505050620000ec565b600080fd5b6000819050919050565b62000094816200007f565b8114620000a057600080fd5b50565b600081519050620000b48162000089565b92915050565b600060208284031215620000d357620000d26200007a565b5b6000620000e384828501620000a3565b91505092915050565b60805160a05161234c6200012e6000396000818161088201528181610ad301526117ba01526000818161020e0152818161029c0152611792015261234c6000f3fe6080604052600436106100915760003560e01c80639c4d22b7116100595780639c4d22b7146101465780639fab665614610171578063adfbe22f1461019a578063b2bdfa7b146101b6578063c5b37c22146101e157610091565b80633ccfd60b14610096578063415f1240146100ad57806355cf1873146100d65780637fd6f15c146100f25780638cea6a931461011d575b600080fd5b3480156100a257600080fd5b506100ab61020c565b005b3480156100b957600080fd5b506100d460048036038101906100cf9190611819565b610303565b005b6100f060048036038101906100eb9190611819565b6106ea565b005b3480156100fe57600080fd5b50610107610ad1565b6040516101149190611855565b60405180910390f35b34801561012957600080fd5b50610144600480360381019061013f91906118e0565b610af5565b005b34801561015257600080fd5b5061015b610f7f565b6040516101689190611982565b60405180910390f35b34801561017d57600080fd5b5061019860048036038101906101939190611819565b610f9b565b005b6101b460048036038101906101af9190611819565b61121b565b005b3480156101c257600080fd5b506101cb61178e565b6040516101d891906119ac565b60405180910390f35b3480156101ed57600080fd5b506101f66117b6565b6040516102039190611855565b60405180910390f35b7f000000000000000000000000000000000000000000000000000000000000000073ffffffffffffffffffffffffffffffffffffffff163373ffffffffffffffffffffffffffffffffffffffff161461029a576040517f08c379a000000000000000000000000000000000000000000000000000000000815260040161029190611a24565b60405180910390fd5b7f000000000000000000000000000000000000000000000000000000000000000073ffffffffffffffffffffffffffffffffffffffff166108fc479081150290604051600060405180830381858888f19350505050158015610300573d6000803e3d6000fd5b50565b808060036000838152602001908152602001600020600801541461035c576040517f08c379a000000000000000000000000000000000000000000000000000000000815260040161035390611a90565b60405180910390fd5b600060036000848152602001908152602001600020604051806101600160405290816000820160009054906101000a900473ffffffffffffffffffffffffffffffffffffffff1673ffffffffffffffffffffffffffffffffffffffff1673ffffffffffffffffffffffffffffffffffffffff1681526020016001820160009054906101000a900473ffffffffffffffffffffffffffffffffffffffff1673ffffffffffffffffffffffffffffffffffffffff1673ffffffffffffffffffffffffffffffffffffffff1681526020016002820160009054906101000a900473ffffffffffffffffffffffffffffffffffffffff1673ffffffffffffffffffffffffffffffffffffffff1673ffffffffffffffffffffffffffffffffffffffff1681526020016003820154815260200160048201548152602001600582015481526020016006820154815260200160078201548152602001600882015481526020016009820160009054906101000a900460ff161515151581526020016009820160019054906101000a900460ff16151515158152505090508060e001514211610539576040517f08c379a000000000000000000000000000000000000000000000000000000000815260040161053090611afc565b60405180910390fd5b806040015173ffffffffffffffffffffffffffffffffffffffff163373ffffffffffffffffffffffffffffffffffffffff16146105ab576040517f08c379a00000000000000000000000000000000000000000000000000000000081526004016105a290611b68565b60405180910390fd5b806101200151156105f1576040517f08c379a00000000000000000000000000000000000000000000000000000000081526004016105e890611bd4565b60405180910390fd5b6003600084815260200190815260200160002060000160009054906101000a900473ffffffffffffffffffffffffffffffffffffffff1673ffffffffffffffffffffffffffffffffffffffff166323b872dd30836040015184606001516040518463ffffffff1660e01b815260040161066c93929190611bf4565b600060405180830381600087803b15801561068657600080fd5b505af115801561069a573d6000803e3d6000fd5b505050507f936b6386c376aebe559a11566ad4bf92fe9d90ffee260a64d247408f3c9358118160200151826040015183606001516040516106dd93929190611bf4565b60405180910390a1505050565b8080600360008381526020019081526020016000206008015414610743576040517f08c379a000000000000000000000000000000000000000000000000000000000815260040161073a90611a90565b60405180910390fd5b3373ffffffffffffffffffffffffffffffffffffffff166003600084815260200190815260200160002060010160009054906101000a900473ffffffffffffffffffffffffffffffffffffffff1673ffffffffffffffffffffffffffffffffffffffff16146107e7576040517f08c379a00000000000000000000000000000000000000000000000000000000081526004016107de90611c77565b60405180910390fd5b6003600083815260200190815260200160002060050154341015610840576040517f08c379a000000000000000000000000000000000000000000000000000000000815260040161083790611ce3565b60405180910390fd5b60006003600084815260200190815260200160002060040154600360008581526020019081526020016000206005015461087a9190611d32565b9050600060647f0000000000000000000000000000000000000000000000000000000000000000836108ac9190611d66565b6108b69190611def565b90506003600085815260200190815260200160002060020160009054906101000a900473ffffffffffffffffffffffffffffffffffffffff1673ffffffffffffffffffffffffffffffffffffffff166108fc82600360008881526020019081526020016000206005015461092a9190611d32565b9081150290604051600060405180830381858888f19350505050158015610955573d6000803e3d6000fd5b506000600360008681526020019081526020016000206005018190555060016003600086815260200190815260200160002060090160006101000a81548160ff0219169083151502179055506003600085815260200190815260200160002060000160009054906101000a900473ffffffffffffffffffffffffffffffffffffffff1673ffffffffffffffffffffffffffffffffffffffff166323b872dd306003600088815260200190815260200160002060010160009054906101000a900473ffffffffffffffffffffffffffffffffffffffff1660036000898152602001908152602001600020600301546040518463ffffffff1660e01b8152600401610a6093929190611bf4565b600060405180830381600087803b158015610a7a57600080fd5b505af1158015610a8e573d6000803e3d6000fd5b505050507f884a03e54e76786c0f7b628ffa2ff73d9f57e07ac9cc8a3f2e30331e850497cc3385604051610ac3929190611e20565b60405180910390a150505050565b7f000000000000000000000000000000000000000000000000000000000000000081565b828211610b37576040517f08c379a0000000000000000000000000000000000000000000000000000000008152600401610b2e90611ebb565b60405180910390fd5b60006040518061016001604052808773ffffffffffffffffffffffffffffffffffffffff1681526020013373ffffffffffffffffffffffffffffffffffffffff168152602001600073ffffffffffffffffffffffffffffffffffffffff168152602001868152602001858152602001848152602001600081526020016201518084610bc29190611d66565b815260200160008081819054906101000a90046bffffffffffffffffffffffff16610bec90611edb565b91906101000a8154816bffffffffffffffffffffffff02191690836bffffffffffffffffffffffff16021790556bffffffffffffffffffffffff16815260200160001515815260200160001515815250905080600260008060009054906101000a90046bffffffffffffffffffffffff166bffffffffffffffffffffffff16815260200190815260200160002060008201518160000160006101000a81548173ffffffffffffffffffffffffffffffffffffffff021916908373ffffffffffffffffffffffffffffffffffffffff16021790555060208201518160010160006101000a81548173ffffffffffffffffffffffffffffffffffffffff021916908373ffffffffffffffffffffffffffffffffffffffff16021790555060408201518160020160006101000a81548173ffffffffffffffffffffffffffffffffffffffff021916908373ffffffffffffffffffffffffffffffffffffffff160217905550606082015181600301556080820151816004015560a0820151816005015560c0820151816006015560e0820151816007015561010082015181600801556101208201518160090160006101000a81548160ff0219169083151502179055506101408201518160090160016101000a81548160ff0219169083151502179055509050503073ffffffffffffffffffffffffffffffffffffffff168673ffffffffffffffffffffffffffffffffffffffff1663081812fc876040518263ffffffff1660e01b8152600401610e209190611855565b602060405180830381865afa158015610e3d573d6000803e3d6000fd5b505050506040513d601f19601f82011682018060405250810190610e619190611f3c565b73ffffffffffffffffffffffffffffffffffffffff1614610eb7576040517f08c379a0000000000000000000000000000000000000000000000000000000008152600401610eae90611fb5565b60405180910390fd5b8573ffffffffffffffffffffffffffffffffffffffff166323b872dd3330886040518463ffffffff1660e01b8152600401610ef493929190611bf4565b600060405180830381600087803b158015610f0e57600080fd5b505af1158015610f22573d6000803e3d6000fd5b505050507fa86b9ae4d53078e206880b1e17851b5d43a4884eab526218f26dfc4c50f99fb43360008054906101000a90046bffffffffffffffffffffffff16604051610f6f929190612010565b60405180910390a1505050505050565b60008054906101000a90046bffffffffffffffffffffffff1681565b8060036000838152602001908152602001600020600801541415610ff4576040517f08c379a0000000000000000000000000000000000000000000000000000000008152600401610feb90612085565b60405180910390fd5b3373ffffffffffffffffffffffffffffffffffffffff166002600083815260200190815260200160002060010160009054906101000a900473ffffffffffffffffffffffffffffffffffffffff1673ffffffffffffffffffffffffffffffffffffffff1614611098576040517f08c379a000000000000000000000000000000000000000000000000000000000815260040161108f906120f1565b60405180910390fd5b6002600082815260200190815260200160002060000160009054906101000a900473ffffffffffffffffffffffffffffffffffffffff1673ffffffffffffffffffffffffffffffffffffffff166323b872dd306002600085815260200190815260200160002060010160009054906101000a900473ffffffffffffffffffffffffffffffffffffffff1660026000868152602001908152602001600020600301546040518463ffffffff1660e01b815260040161115793929190611bf4565b600060405180830381600087803b15801561117157600080fd5b505af1158015611185573d6000803e3d6000fd5b5050505060006002600083815260200190815260200160002060010160006101000a81548173ffffffffffffffffffffffffffffffffffffffff021916908373ffffffffffffffffffffffffffffffffffffffff1602179055507f889d79b996b8e51a09bd6158af8d6f68c01a95af8be3c300cfed7cc53ea65f423382604051611210929190611e20565b60405180910390a150565b8060036000838152602001908152602001600020600801541415611274576040517f08c379a000000000000000000000000000000000000000000000000000000000815260040161126b9061215d565b60405180910390fd5b600060026000838152602001908152602001600020604051806101600160405290816000820160009054906101000a900473ffffffffffffffffffffffffffffffffffffffff1673ffffffffffffffffffffffffffffffffffffffff1673ffffffffffffffffffffffffffffffffffffffff1681526020016001820160009054906101000a900473ffffffffffffffffffffffffffffffffffffffff1673ffffffffffffffffffffffffffffffffffffffff1673ffffffffffffffffffffffffffffffffffffffff1681526020016002820160009054906101000a900473ffffffffffffffffffffffffffffffffffffffff1673ffffffffffffffffffffffffffffffffffffffff1673ffffffffffffffffffffffffffffffffffffffff1681526020016003820154815260200160048201548152602001600582015481526020016006820154815260200160078201548152602001600882015481526020016009820160009054906101000a900460ff161515151581526020016009820160019054906101000a900460ff1615151515815250509050600073ffffffffffffffffffffffffffffffffffffffff16816020015173ffffffffffffffffffffffffffffffffffffffff16141561147f576040517f08c379a0000000000000000000000000000000000000000000000000000000008152600401611476906121c9565b60405180910390fd5b80608001513410156114c6576040517f08c379a00000000000000000000000000000000000000000000000000000000081526004016114bd9061225b565b60405180910390fd5b806020015173ffffffffffffffffffffffffffffffffffffffff166108fc82608001519081150290604051600060405180830381858888f19350505050158015611514573d6000803e3d6000fd5b50604051806101600160405280826000015173ffffffffffffffffffffffffffffffffffffffff168152602001826020015173ffffffffffffffffffffffffffffffffffffffff1681526020013373ffffffffffffffffffffffffffffffffffffffff16815260200182606001518152602001826080015181526020018260a001518152602001428360c001516115ab919061227b565b8152602001428360e001516115c0919061227b565b8152602001838152602001600015158152602001600115158152506003600084815260200190815260200160002060008201518160000160006101000a81548173ffffffffffffffffffffffffffffffffffffffff021916908373ffffffffffffffffffffffffffffffffffffffff16021790555060208201518160010160006101000a81548173ffffffffffffffffffffffffffffffffffffffff021916908373ffffffffffffffffffffffffffffffffffffffff16021790555060408201518160020160006101000a81548173ffffffffffffffffffffffffffffffffffffffff021916908373ffffffffffffffffffffffffffffffffffffffff160217905550606082015181600301556080820151816004015560a0820151816005015560c0820151816006015560e0820151816007015561010082015181600801556101208201518160090160006101000a81548160ff0219169083151502179055506101408201518160090160016101000a81548160ff0219169083151502179055509050507fb146604a9b48a85fc611f6de5e73271318c39ea60adba8244122d3b52a780fd181602001513383608001518560405161178294939291906122d1565b60405180910390a15050565b60007f0000000000000000000000000000000000000000000000000000000000000000905090565b60007f0000000000000000000000000000000000000000000000000000000000000000905090565b600080fd5b6000819050919050565b6117f6816117e3565b811461180157600080fd5b50565b600081359050611813816117ed565b92915050565b60006020828403121561182f5761182e6117de565b5b600061183d84828501611804565b91505092915050565b61184f816117e3565b82525050565b600060208201905061186a6000830184611846565b92915050565b600073ffffffffffffffffffffffffffffffffffffffff82169050919050565b600061189b82611870565b9050919050565b60006118ad82611890565b9050919050565b6118bd816118a2565b81146118c857600080fd5b50565b6000813590506118da816118b4565b92915050565b600080600080600060a086880312156118fc576118fb6117de565b5b600061190a888289016118cb565b955050602061191b88828901611804565b945050604061192c88828901611804565b935050606061193d88828901611804565b925050608061194e88828901611804565b9150509295509295909350565b60006bffffffffffffffffffffffff82169050919050565b61197c8161195b565b82525050565b60006020820190506119976000830184611973565b92915050565b6119a681611890565b82525050565b60006020820190506119c1600083018461199d565b92915050565b600082825260208201905092915050565b7f4e6f7420746865206f776e6572206f662074686520636f6e7472616374210000600082015250565b6000611a0e601e836119c7565b9150611a19826119d8565b602082019050919050565b60006020820190508181036000830152611a3d81611a01565b9050919050565b7f496e76616c6964206c6f616e2100000000000000000000000000000000000000600082015250565b6000611a7a600d836119c7565b9150611a8582611a44565b602082019050919050565b60006020820190508181036000830152611aa981611a6d565b9050919050565b7f4c6f616e20706572696f64207374696c6c206163746976652100000000000000600082015250565b6000611ae66019836119c7565b9150611af182611ab0565b602082019050919050565b60006020820190508181036000830152611b1581611ad9565b9050919050565b7f4e6f74206c656e64657200000000000000000000000000000000000000000000600082015250565b6000611b52600a836119c7565b9150611b5d82611b1c565b602082019050919050565b60006020820190508181036000830152611b8181611b45565b9050919050565b7f4c6f616e207761732070616964206f6666210000000000000000000000000000600082015250565b6000611bbe6012836119c7565b9150611bc982611b88565b602082019050919050565b60006020820190508181036000830152611bed81611bb1565b9050919050565b6000606082019050611c09600083018661199d565b611c16602083018561199d565b611c236040830184611846565b949350505050565b7f43616e206f6e6c7920706179206f666620796f7572206f776e206c6f616e7321600082015250565b6000611c616020836119c7565b9150611c6c82611c2b565b602082019050919050565b60006020820190508181036000830152611c9081611c54565b9050919050565b7f4d75737420706179206c6f616e20696e2066756c6c2100000000000000000000600082015250565b6000611ccd6016836119c7565b9150611cd882611c97565b602082019050919050565b60006020820190508181036000830152611cfc81611cc0565b9050919050565b7f4e487b7100000000000000000000000000000000000000000000000000000000600052601160045260246000fd5b6000611d3d826117e3565b9150611d48836117e3565b925082821015611d5b57611d5a611d03565b5b828203905092915050565b6000611d71826117e3565b9150611d7c836117e3565b9250817fffffffffffffffffffffffffffffffffffffffffffffffffffffffffffffffff0483118215151615611db557611db4611d03565b5b828202905092915050565b7f4e487b7100000000000000000000000000000000000000000000000000000000600052601260045260246000fd5b6000611dfa826117e3565b9150611e05836117e3565b925082611e1557611e14611dc0565b5b828204905092915050565b6000604082019050611e35600083018561199d565b611e426020830184611846565b9392505050565b7f43616e6e6f742072657175657374206d6f7265207468616e20796f752070617960008201527f2100000000000000000000000000000000000000000000000000000000000000602082015250565b6000611ea56021836119c7565b9150611eb082611e49565b604082019050919050565b60006020820190508181036000830152611ed481611e98565b9050919050565b6000611ee68261195b565b91506bffffffffffffffffffffffff821415611f0557611f04611d03565b5b600182019050919050565b611f1981611890565b8114611f2457600080fd5b50565b600081519050611f3681611f10565b92915050565b600060208284031215611f5257611f516117de565b5b6000611f6084828501611f27565b91505092915050565b7f5472616e73666572206e6f7420617070726f7665642100000000000000000000600082015250565b6000611f9f6016836119c7565b9150611faa82611f69565b602082019050919050565b60006020820190508181036000830152611fce81611f92565b9050919050565b6000819050919050565b6000611ffa611ff5611ff08461195b565b611fd5565b6117e3565b9050919050565b61200a81611fdf565b82525050565b6000604082019050612025600083018561199d565b6120326020830184612001565b9392505050565b7f4c6f616e20697320616c72656164792061637469766521000000000000000000600082015250565b600061206f6017836119c7565b915061207a82612039565b602082019050919050565b6000602082019050818103600083015261209e81612062565b9050919050565b7f43616e206f6e6c79207265747261637420796f7572206c6f616e732100000000600082015250565b60006120db601c836119c7565b91506120e6826120a5565b602082019050919050565b6000602082019050818103600083015261210a816120ce565b9050919050565b7f4c6f616e2068617320616c7265616479206265656e2061636365707465642100600082015250565b6000612147601f836119c7565b915061215282612111565b602082019050919050565b600060208201905081810360008301526121768161213a565b9050919050565b7f4c6f616e20686173206265656e20726574726163746564210000000000000000600082015250565b60006121b36018836119c7565b91506121be8261217d565b602082019050919050565b600060208201905081810360008301526121e2816121a6565b9050919050565b7f596f75206e65656420746f206c6f616e206f7574207468652066756c6c20616d60008201527f6f756e7421000000000000000000000000000000000000000000000000000000602082015250565b60006122456025836119c7565b9150612250826121e9565b604082019050919050565b6000602082019050818103600083015261227481612238565b9050919050565b6000612286826117e3565b9150612291836117e3565b9250827fffffffffffffffffffffffffffffffffffffffffffffffffffffffffffffffff038211156122c6576122c5611d03565b5b828201905092915050565b60006080820190506122e6600083018761199d565b6122f3602083018661199d565b6123006040830185611846565b61230d6060830184611846565b9594505050505056fea2646970667358221220e5aaceff2cecd6de333ddacdd207d58037096cc1a54008161c346dd90364ac4764736f6c634300080a0033",
  "linkReferences": {},
  "deployedLinkReferences": {}
}